:100000000C9499050C944D1C0C94E0050C94E0059F
:100010000C94E0050C94E0050C94E0050C94E005CC
:100020000C94E0050C94E0050C9402300C94D43050
:100030000C947E2A0C94E0050C94E0050C94E005E9
:100040000C94E0050C94E0050C94E0050C94E0059C
:100050000C94E0050C94CB2A0C94E0050C94E0057C
:100060000C94E0050C94E0050C94E0050C94E0057C
:100070000C94E0050C94E0050C94E0050C94E0056C
:100080000C94E0050C94E0050C94E0050C94E0055C
:100090000C94E0050C94E0050C94E0050C94E0054C
:1000A0000C94E0050C94E0050C94E005F015F315B4
:1000B000F815FF15041609160E16131618161D1638
:1000C0002216271629162C162F1632163516381614
:1000D0003A163F166420642096209620E3201722CB
:1000E0001722172201219621A721A72107221722D3
:1000F00017221022B322B322C522C522BC22C52258
:10010000C522C522B322B322C122C522C522C122E3
:1001100041316831603268316032B431D731603298
:100120002E323D32165C1E001F00200021002200EE
:100130002B0014001A0008001500170001510400DC
:100140001600070009000A00E1001D001B00060060
:100150001900050000000000E00002512C00E3003F
:100160002A00270026002500240023004C0013004D
:1001700012000C0018001C00280033000F000E00B5
:100180000D000B00E50038003700360010001100AC
:1001900000000000E400E6002C00035135000000E0
:1001A000000000000000000000000000000000004F
:1001B000000000000000000000000000000000003F
:1001C000010000000000000000000000000000002E
:1001D0000100000001000100310030022F022E005A
:1001E0002D002D02310230002F00520000000000CF
:1001F000340000004F00510050004B00010000008F
:1002000000004D004A004E00000000000100010007
:1002100001000000000000000000000000000000DD
:1002200000000000000000000000000000000000CE
:1002300000000000000000000000000000000000BE
:1002400000000000000000000100000001000100AB
:10025000000000000000000000000000000000009E
:100260000000520000000000000000004F0051009C
:1002700050004B000000000000004D004A004E00FE
:1002800000000000010001000100000046003A00EB
:100290003B003C003D003E0000000000000000006C
:1002A000AD00A800C35C000000000000AE00A90083
:1002B000C05C00000000BC00BB00AA000000000001
:1002C0000000000000000451000043004200410013
:1002D00040003F00A5004500440000000000BD00B4
:1002E000A6000000000000000000BE00A700000003
:1002F00000000000000000000000000000000000FE
:1003000000000000005C000000000000C45CC55C50
:1003100000000000000000000000000000000000DD
:1003200000000000000000000000000000000000CD
:1003300000000000000000000000000000000100BC
:10034000005C000000000000C75CC65C000000000C
:1003500000000000C95CC85C000000000000000054
:10036000CB5CCA5C0000000000000000BE5CBF5C0B
:10037000000000000000000000000000444542555D
:10038000473A2064697361626C65642E0A004445D3
:100390004255473A20656E61626C65642E0A000A18
:1003A0000025303862003A200025303258000A72A9
:1003B0002F632030313233343536370A00726762AA
:1003C0006C6967687420616E696D6174696F6E2015
:1003D0007469636B207265706F727420746F207320
:1003E0006C6176650A007267626C69676874207474
:1003F000696D65722064697361626C652E0A0072B2
:1004000067626C696768742074696D657220656ED7
:1004100061626C65642E0A007267626C6967687459
:100420002073657420687376205B4E4F45455052AB
:100430004F4D5D3A2025752C25752C25750A0072C7
:1004400067626C69676874207365742068737620CE
:100450005B454550524F4D5D3A2025752C25752C36
:1004600025750A007267626C696768742072616939
:100470006E626F7720736574206873763A20256406
:100480002C25642C25642C25750A007267626C6922
:100490006768742064697361626C65205B4E4F45C8
:1004A0004550524F4D5D3A207267626C69676874BF
:1004B0005F636F6E6669672E656E61626C65203D75
:1004C0002025750A007267626C6967687420646928
:1004D0007361626C65205B454550524F4D5D3A201B
:1004E0007267626C696768745F636F6E6669672EB6
:1004F000656E61626C65203D2025750A0072676239
:100500006C6967687420656E61626C65205B454547
:1005100050524F4D5D3A207267626C696768745F34
:10052000636F6E6669672E656E61626C65203D2043
:1005300025750A007267626C6967687420746F675A
:10054000676C65205B454550524F4D5D3A207267A0
:10055000626C696768745F636F6E6669672E656E4B
:1005600061626C65203D2025750A007267626C69C6
:10057000676874206D6F6465205B4E4F454550522F
:100580004F4D5D3A2025750A007267626C69676895
:1005900074206D6F6465205B454550524F4D5D3A48
:1005A0002025750A007267626C696768745F696EFE
:1005B0006974207267626C696768745F636F6E66E6
:1005C00069672E6D6F6465203D20302E205772695B
:1005D00074652064656661756C742076616C756500
:1005E0007320746F20454550524F4D2E0A0072679C
:1005F000626C696768745F696E6974206565636FB2
:100600006E666967206973206E6F7420656E616223
:100610006C65642E0A007267626C696768745F6952
:100620006E6974207374617274210A007267626C5F
:10063000696768745F696E69742063616C6C656476
:100640002E0A007267626C696768745F636F6E661A
:1006500069672E7370656564203D2025640A007209
:1006600067626C696768745F636F6E6669672E7630
:10067000616C203D2025640A007267626C696768BE
:10068000745F636F6E6669672E736174203D202509
:10069000640A007267626C696768745F636F6E6694
:1006A00069672E687565203D2025640A00726768B9
:1006B0006C696768745F636F6E6669672E6D6F64DF
:1006C00065203D2025640A007267626C6967687462
:1006D0005F636F6E6669672E656E61626C65203D53
:1006E0002025640A007267626C696768745F636FD3
:1006F0006E66696720454550524F4D3A0A003219DF
:100700000A00047F3F1F643214643214783C1E1EBA
:10071000140A052223252628292A2C2D2F3032338E
:100720003536383A3B3D3E4042434547494A4C4EB8
:100730005051535557595A5C5E6062646668696BE4
:100740006D6F71737577797B7D7F81838587898AEA
:100750008C8E90929496989A9C9E9FA1A3A5A7A8F0
:10076000AAACAEAFB1B3B4B6B8B9BBBCBEBFC1C220
:10077000C3C5C6C7C9CACBCCCDCED0D1D2D2D3D4B3
:10078000D5D6D7D7D8D9D9DADADBDBDBDCDCDCDCD1
:10079000DCDDDDDDDDDCDCDCDCDCDBDBDBDADAD99F
:1007A000D9D8D7D7D6D5D4D3D2D2D1D0CECDCCCB21
:1007B000CAC9C7C6C5C3C2C1BFBEBCBBB9B8B6B43F
:1007C000B3B1AFAEACAAA8A7A5A3A19F9E9C9A98CF
:1007D000969492908E8C8A89878583817F7D7B79A0
:1007E000777573716F6D6B6968666462605E5C5A81
:1007F0005957555351504E4C4A4947454342403E44
:100800003D3B3A3836353332302F2D2C2A292826D5
:10081000252322FFAA7F55406261636B6C6967687C
:100820007420737465703A2025750A006261636BE9
:100830006C696768742064697361626C650A006240
:1008400061636B6C6967687420656E61626C650AD0
:10085000006261636B6C6967687420746F67676CB2
:10086000653A2025750A006261636B6C696768747C
:100870002064656372656173653A2025750A0062BC
:1008800061636B6C6967687420696E63726561731C
:10089000653A2025750A00000101010101010101ED
:1008A0000102020202020202020203030303030323
:1008B00003030404040404040405050505050606F1
:1008C00006060607070707070808080809090909AF
:1008D0000A0A0A0B0B0B0C0C0C0D0D0D0E0E0E0F55
:1008E0000F0F1010111111121213131414151516E5
:1008F000161717181819191A1A1B1B1C1D1D1E1E56
:100900001F202021222223242425262627282929A6
:100910002A2B2C2D2D2E2F303132323334353637D1
:1009200038393A3B3C3D3E3F4041424344454647CF
:1009300048494A4C4D4E4F50515354555658595AA8
:100940005B5D5E5F616264656668696B6C6D6F704C
:1009500072737577787A7B7D7E8082838587888ABB
:100960008C8E8F91939596989A9C9EA0A2A3A5A7F2
:10097000A9ABADAFB1B3B5B7BABCBEC0C2C4C6C9EE
:10098000CBCDCFD1D4D6D8DBDDDFE2E4E7E9EBEEA7
:10099000F0F3F5F8FAFDFF0A002530325820006B1D
:1009A0006579626F6172645F7265706F72743A200C
:1009B000000A0025303258006B6579626F617264FD
:1009C0005F7365745F6C65643A20005B735D004B18
:1009D0006579626F6172642073746172742E0A00AB
:1009E0005B575D005B535D005B525D005B445D00E7
:1009F0005B435D0026034B006500650062006900F3
:100A00006F0020004900720069007300200052004E
:100A1000650076002E002000340000000E034B001D
:100A200065006500620069006F00000004030904AE
:100A300009025B00030100A0FA09040000010301A0
:100A4000010009211101000122400007058103086E
:100A5000000A09040100010300000009211101003E
:100A6000012232000705820320000A090402000265
:100A70000300000009211101000122220007058363
:100A800003200001070503032000011201100100EB
:100A900000000810CB56420004010200010631FF9D
:100AA0000974A1010975150026FF009520750881BC
:100AB000020976150026FF00952075089102C005F1
:100AC000010980A101850319012AB700150126B784
:100AD00000950175108100C0050C0901A101850474
:100AE00019012AA002150126A002950175108100A6
:100AF000C005010906A101050719E029E715002530
:100B00000195087501810295017508810105071994
:100B10000029FF150026FF009506750881000508CD
:100B2000190129059505750191029501750391013A
:100B3000C00011241FBECFEFDAE0DEBFCDBF04B688
:100B400003FE27C08091540390915503A091560352
:100B5000B09157038730904BA740B04BD1F410921F
:100B6000540310925503109256031092570314BE6B
:100B700084B7877F84BF0FB6F894A89580916000F2
:100B8000886180936000109260000FBEE0E0F8E39F
:100B9000099511E0A0E0B1E0E0E2F8E602C00590BE
:100BA0000D92AA3FB107D9F723E0AAEFB1E001C047
:100BB0001D92A435B207E1F70E94392D0C940E3432
:100BC0000C940000FF93EF93E091FA01F091FB0188
:100BD000309709F00995EF91FF910895FC018591F7
:100BE000803011F0EFDFFBCF0895FF27E0E230E225
:100BF00047FF0CC0419597FF09C0EDE260957095E5
:100C000080959095611D711D811D911D27FF02C06A
:100C1000219530E350E2AA27660F771F881F991F9E
:100C2000AA1FA41710F0A41B63955A95A9F7AA3020
:100C300008F0A95FA05DAF93F3956115710581057B
:100C4000910541F7ED3211F4EF93F395F21718F493
:100C50003F93F395FBCF8F91B5DFFA95E1F70895B8
:100C6000E991F9918591803021F0853219F0AADF60
:100C7000F9CF089520E0E89455915532C1F35033EF
:100C800011F4689455915A3348F4505390F3220F5D
:100C9000022E220F220F200D250FF4CF0EF42195E6
:100CA00089919991533619F3533729F1533559F1F5
:100CB000BC0188279927E8945C3621F489919991A1
:100CC00068945591543639F446EF7EF077FF0DC0A5
:100CD0008FEF9FEF0AC055374AE039F0583540E1B1
:100CE00021F0523642E009F00895FF93EF937DDF43
:100CF000EF91FF91B7CFFF93EF93FC01819180308B
:100D0000B9F360DFFBCFFF93EF9368DFF1CFDF93A1
:100D1000CF93CDB7DEB72596A3DFCF91DF910895AE
:100D20000E94E31683E00E9493170E94AC134FEFDA
:100D30006FEF80E00E94E00F8BE00E94A91360E05B
:100D400070E0CB010E945F290C946B2981E008952B
:100D500081E008950C94A80608950C94AC061F93A6
:100D6000CF93DF9300D000D01F92CDB7DEB7498379
:100D70005A836B8330917C0289819A81311114C02E
:100D8000662359F0222349F00E94EE27182F682F7E
:100D900089819A810E94952703C00E94C127182F3C
:100DA00069817A81812F04C00E94EE2769817A814E
:100DB0000F900F900F900F900F90DF91CF911F9198
:100DC0000C949E07FC01262F408151816281738122
:100DD00084810C94AF06CF93DF93EC0160E00E9416
:100DE000E206BE01DF91CF910C94AD060E94252949
:100DF000811102C00E94CE290E9438180C94F90972
:100E00000C94F50908950E94A1220E9402072FEF79
:100E100084E39CE0215080409040E1F700C0000056
:100E20000C94F12A0F931F93CF93DF93EC0161E0B1
:100E30000E94E2068C01BE010E94AA06882309F4E2
:100E400050C0BE01C8010E949917882309F449C007
:100E5000BE01C8010E94EF19882309F442C0BE01F7
:100E6000C8010E94411A8823E1F1BE01C8010E9415
:100E70006C1B8823B1F1BE01C8010E94DA158823DA
:100E800081F18A81882331F101308CE5180751F016
:100E90000F3D8CE51807D9F001151C45D9F40E94C7
:100EA00003071FC08091F202C82FC095C170C0FB1C
:100EB00080F98093F202CC2329F08EE893E00E941F
:100EC000EE050FC08CE793E00E94EE050BC00E9478
:100ED000CE2907C0CE01DF91CF911F910F910C94C5
:100EE000A606C0E08C2FDF91CF911F910F9108953E
:100EF0008295982F937344E0949F900111248C7CE9
:100F000086958695282B822F8575880F2A7A2695B7
:100F1000822B089508950C948A0781E008950C941B
:100F20008D07CF93C82F0E948B078C2F0E948F07AD
:100F3000CF91089580E090E0089508952CE3829F7A
:100F4000C0011124FC0126E0729FE00DF11D112467
:100F5000E60FF11DEE0FFF1FEC5DFE4F85919491A2
:100F60000895880F991FFC01E156FC4F85919491DB
:100F70000895CF93DF930E949E070E94CB08EC0157
:100F80008115904508F043C0C11580E4D80708F0EA
:100F9000CBC0C03ED10528F5C03CD10508F0B3C098
:100FA000C83AD10578F4C53AD10508F0A4C0C130DB
:100FB000D10509F4ECC008F4E8C0C430D10508F04C
:100FC000E6C0E3C0CF3BD10508F0DFC0C85AD0E08F
:100FD000CC0FDD1FC35BDE4F0990D881C02DD464D8
:100FE000D6C0C11590E2D90750F4C11521E0D2074F
:100FF00008F0CDC0C83ED10508F4C9C0C6C0C115AF
:1010000080E3D80708F086C0CE019F707FC0C1156D
:1010100095E5D90708F043C0C11524E5D20708F0CB
:101020009AC0C11582E5D80708F5C11591E5D90721
:1010300008F07DC0CE0174E0969587957A95E1F72A
:1010400083709C2F937021E030E002C0220F331F89
:101050009A95E2F73C68382BCF70C695C69580E22A
:10106000C89FE0011124C22BD32B91C09E01237095
:1010700033278C2F86958695C115D34508F05CC023
:10108000C1E0D0E002C0CC0FDD1F2A95E2F720E2DC
:10109000829FC0011124C82BD92BDC6878C0C115F0
:1010A00029E5D207A0F4C11588E5D80708F058C093
:1010B000C11596E5D90708F068C08C2F0E945F091A
:1010C0008F71C82FD0E0DC2FCC27D06260C0C11553
:1010D0002AE5D20708F449C0CE0190568115904206
:1010E00008F053C08D2F8F710E945F09DD27D062F9
:1010F0008F71D82B4CC0C55AD0E0C558DE4FC8817F
:10110000D0E0D06444C0CE01805C91090E94B10758
:10111000EC013DC0CE019927D3FF03C0EC01D86C90
:1011200036C0EC01D06C33C0DF70D06A30C0DC2F29
:10113000CC27C16FD06A2BC0C1E0D0E002C0CC0F79
:10114000DD1F2A95E2F720E2829FC0011124C82BFF
:10115000D92BDA681CC0DC2FCC27C46FD06A17C02B
:10116000DC2FCC27C06FD06A12C08C2F8F700E94EA
:101170005F0994E0D695C7959A95E1F7CF70D0E0D6
:10118000DC2FCC27D069C82B02C0C0E0D0E0CE0154
:10119000DF91CF9108958238910569F1B0F48133E0
:1011A000910509F46DC048F48932910509F463C0D2
:1011B0008A32910509F469C008958533910509F4CF
:1011C00055C089339105B9F00895833E910569F1C1
:1011D00038F4803E9105B1F0823E910509F1089501
:1011E000863E9105A9F1873E9105B9F1843E9105AE
:1011F00009F064C023C02091450320FD4FC021FDAC
:101200004DC008958091450380FD44C08091460300
:1012100080FF44C08091450384FD42C083EE4DC0F1
:101220008091450382FF38C0F5CF8091450382FD50
:1012300033C08091460380FD31C0ECCF80914603DE
:1012400081FF32C08091450384FD2AC087EE35C0FE
:101250008091450383FF26C0F5CF8091450383FD30
:1012600021C08091460381FD1FC0ECCF80914503D2
:1012700085FD1CC01DC08091450385FD19C016C0A9
:101280008091450386FD16C017C08091450386FDF9
:1012900013C010C089E311C082EE0FC080EE0DC0F4
:1012A00080E00BC086EE09C084EE07C089E205C06D
:1012B00085E303C08AE201C081E390E00895909144
:1012C000450392FF0DC0282F2871283019F4877F1D
:1012D000846006C0282F2471243011F48B7F88602D
:1012E00093FF0DC0282F2871283119F4877E84615F
:1012F00006C0282F2471243111F48B7E886120913F
:10130000460320FF0DC0382F3871383019F4877F1D
:10131000816006C0382F3171313011F48E7F8860C2
:1013200021FF0DC0282F2871283119F4877E816193
:1013300006C0282F2171213111F48E7E886194FD21
:10134000877E0895E82FF0E0E55FFC4F80810895E7
:10135000CF92DF92EF92FF920F931F93CF93DF9381
:101360008EEA93E00E94EE058BE0E82E83E0F82EF3
:10137000C0E0D0E099EAC92E93E0D92E01EA13E04B
:10138000DF93CF93DF92CF920E94870686EA93E0A5
:101390000E94EE05F70181917F010E9478071F925C
:1013A0008F931F930F930E9487068FE993E00E940B
:1013B000EE0521968DB79EB708960FB6F8949EBF9E
:1013C0000FBE8DBFCA30D105D9F6DF91CF911F91E5
:1013D0000F91FF90EF90DF90CF90089580EA8A956B
:1013E000F1F7089508950C94F2090C94F3090C9404
:1013F000F2090C94F709F894E82FE295EF70F0E009
:1014000031A1282F2F7081E090E001C0880F2A952C
:10141000EAF7982F9095932391A392A1892B82A309
:10142000789408950895EF92FF920F931F93CF93AE
:10143000DF93CDB7DEB760970FB6F894DEBF0FBE6F
:10144000CDBF0E94AB0B80911401811131C0FE0110
:1014500031962AE0DF011D922A95E9F721E32983DD
:1014600022E32A8322E92B8321EF2C8324EF2D838F
:10147000CF01EAE0F1E09E01255F3F4FDC014D9195
:10148000CD014193A217B307C9F726E0E7E4F1E0E5
:10149000DE011B9601900D922A95E1F7FC01A4E074
:1014A000B1E0CE01419621912D93E817F907D9F7C4
:1014B00080911401811102C095E001C090E09093E9
:1014C000160385E0891B809315030AE011E0F801FB
:1014D00081918F010E94FB09F1E00F301F07B9F7DE
:1014E00004E011E08AE0E82E81E0F82ED8018D9129
:1014F0008D010E94FB09E016F106C1F7E1E0F3E07F
:10150000ABE0B3E08BE093E011921D928E179F0742
:10151000D9F785E00E94500B0E94F60660960FB640
:10152000F894DEBF0FBECDBFDF91CF911F910F9119
:10153000FF90EF900C94BF0B0E948E0B882309F153
:101540008091150390E0855F9C4F0E94EF0B811105
:1015500014C08091FC018F5F8093FC01863078F08D
:10156000E0911503F0E0E55FFC4F80E090E0119220
:10157000019685309105D9F702C01092FC010C94B8
:1015800000078091160390E0855F9C4F0E941C0C21
:101590000C94120A8F929F92AF92BF92CF92DF92D9
:1015A000EF92FF920F931F93CF93DF938AE0A82EC1
:1015B00081E0B82EC1E0D3E09FE0E92E91E0F92E62
:1015C000912C01E010E06501F5018081F894E82F8D
:1015D000E295EF70F0E021A18F70A80102C0440FE6
:1015E000551F8A95E2F7CA01922F982B91A392A1D9
:1015F0008095892382A378940E94EE09E4E0F1E0CB
:1016000020E030E0812C4191A42FA295AF70B0E092
:1016100090968C9190E04F7002C0959587954A9571
:10162000E2F780FD07C0802F022E01C0880F0A94C8
:10163000EAF701C080E0882A2F5F3F4F263031054E
:1016400011F75FEFA51AB50AF60180810E94FB0928
:101650008881881619F0888281E001C080E0982A8C
:101660002196EA14FB0409F0AECF6091160370E0F6
:10167000655F7C4F292D45E081E093E00E94510B8E
:101680000E949C0A892DDF91CF911F910F91FF90AD
:10169000EF90DF90CF90BF90AF909F908F90089584
:1016A0000895FF920F931F93CF93DF938C01F62E33
:1016B000D72FC42F222349F081E08093FF010E949D
:1016C000B02A9093FE018093FD018091FF01882351
:1016D000C1F08091FD019091FE010E94BC2A069705
:1016E00080F0EF2DFD2FD8014C2F50E0CD01801B55
:1016F000910B841795071CF48D918193F7CF10926D
:10170000FF01DF91CF911F910F91FF9008955598A0
:101710005D9889B185FB882780F908958091000242
:10172000811112C08091D80080618093D8008AE135
:101730008A95F1F700C08091D90080FD02C082E057
:1017400001C081E08093000281E09091000291301D
:1017500009F080E008950E94870B80931401809126
:10176000140166E0882311F080E001C086E00E9449
:10177000CE0C0E948E0B81110C94C60B08950E9412
:101780008E0B811102C00C94CC0B089562E070E0C6
:1017900085E191E00C94FB1B62E070E085E191E053
:1017A0000C94041C0E94D512882361F08AE092E018
:1017B0000E94DB1281E090E00E94DD1C892B11F475
:1017C0000C94D812089580910902883039F460E0B1
:1017D0008AE092E00E94AA14109209020895CF9321
:1017E000DF93D82FC92F0E94D20B80E090E00E9497
:1017F000DD1C892BE9F4ED2FFC2F80E090E0DC016B
:10180000AD5FBD4F2C912193019685309105B9F7BD
:101810000E944916882319F00E944D1601C080E0ED
:101820008093020288E092E00E94491981E001C0A1
:1018300080E0DF91CF910895CF93DF93D82FC92F08
:101840000E94E30BED2FFC2F80E090E02191DC0162
:10185000AD5FBD4F2C93019685309105B9F780910E
:1018600002020E94CE1788E092E0DF91CF910C94A3
:101870004019EF92FF920F931F93CF93DF938B0149
:10188000682F11110AC0442329F0E82FF0E0E9562F
:10189000F74F6491762F862F75C0212F30E0E82F07
:1018A000F0E0442321F0E956F74FE491F0E046E000
:1018B000049FC0011124CFEFD0E0BE010E94BD32D1
:1018C0004BEA4603C001479F900D1124800F911DE4
:1018D000800F911D982F990F890FAE01421B530B5A
:1018E0004E9FD0014F9FB00D5E9FB00D11249B2FD6
:1018F000189FA0011124452F55278E01041B150B9D
:101900000E9FA0010F9F500D1E9F500D11247E01B0
:10191000E81AF108E29E8001E39E100DF29E100D80
:101920001124212F3327C21BD30BCE9F9001CF9FB1
:10193000300DDE9F300D112462307105A9F048F49E
:101940006115710569F061307105C9F48B2F752F30
:101950000DC06430710581F058F06630710579F47E
:101960007E2F8B2F932F0DC0832F7B2F9E2F09C08F
:101970008E2F7B2F952F05C08E2F732F02C07E2FA9
:10198000852F692FDF91CF911F910F91FF90EF90DD
:10199000089541E00E94390C08950895E8E2F1E0CD
:1019A0008083618308950E94C90C0895CF93DF93CB
:1019B000762FE901682F842F0E94D30C79836883E6
:1019C0008A83DF91CF91089580911703282F269560
:1019D00030E02115310519F48170826005C02B3289
:1019E000310524F08170846580931703089588E0A1
:1019F00090E00C94AF33CF92DF92EF92FF926B01A5
:101A00007C010E94E40CB701A60188E090E0FF9001
:101A1000EF90DF90CF900C94CD33E7E1F3E083E0DB
:101A2000808311828FEF828383831482ABE5B2E0DF
:101A300012968C911297836012968C9360817181BB
:101A4000828193810C94FB0C8091F20280FF08C08C
:101A500085EE96E09F938F930E9487060F900F90DC
:101A60008091F20280FF0FC08091170381701F9256
:101A70008F9388EC96E09F938F930E9487060F9038
:101A80000F900F900F908091F20280FF0FC0809115
:101A9000170386951F928F938DEA96E09F938F93FD
:101AA0000E9487060F900F900F900F908091F20286
:101AB00080FF0EC0809118031F928F9383E996E0F8
:101AC0009F938F930E9487060F900F900F900F9017
:101AD0008091F20280FF0EC0809119031F928F93B4
:101AE00089E796E09F938F930E9487060F900F904F
:101AF0000F900F908091F20280FF0EC080911A0328
:101B00001F928F938FE596E09F938F930E94870695
:101B10000F900F900F900F908091F20280FF0EC0F7
:101B200080911B031F928F9383E496E09F938F9382
:101B30000E9487060F900F900F900F90089580914C
:101B4000170380FF02C08695089580E00895909164
:101B50001B03933018F49F5F90931B03882351F06D
:101B600060911703709118038091190390911A03E3
:101B70000C94FB0C089581E00C94A70D90911B032D
:101B8000992319F0915090931B03882351F0609191
:101B90001703709118038091190390911A030C9404
:101BA000FB0C089581E00C94BE0D70E00C94481875
:101BB000609129018091170380FF0AC0809128015C
:101BC00023E0829FC0011124845E9C4F0C94D50DAC
:101BD00080912A0190912B01891780F7E82FF0E07E
:101BE0009F01220F331FE20FF31FE45EFC4F1182AF
:101BF000108212828F5FF0CF9091170390FF16C072
:101C000090912A0120912B01921770F4E92FF0E0B6
:101C1000DF01AA0FBB1FEA0FFB1FE45EFC4F8183AD
:101C2000608342839F5FF0CF0C94D80D0895CF93CB
:101C3000DF9300D01F92CDB7DEB79091170390FFCE
:101C40000AC09E012F5F3F4F0E94D60C4B816981D5
:101C50008A810E94FC0D0F900F900F90DF91CF9121
:101C60000895CF93DF93EC01EC81F0E0ED5EF84F47
:101C70004491E7E1F3E0628181810E94170E8C813B
:101C80008F5F8C83DF91CF910895CF93DF93EC0129
:101C9000E7E1F3E0438162818C810E94170E8C8121
:101CA0008F5F8C83DF91CF9108950F931F93CF9314
:101CB000DF9300D01F92CDB7DEB78C018091120266
:101CC00081110AC09E012F5F3F4F4FEF6FEF0E94BF
:101CD000D60C8A8180931202F8018481813051F000
:101CE00028F0823061F4409112020AC08091120201
:101CF00040E007C06091120240E080E003C040E095
:101D000080E060E00E94FC0DF801848190E0019683
:101D100063E070E00E94D13284830F900F900F90A7
:101D2000DF91CF911F910F9108954F925F926F9223
:101D30007F928F929F92AF92BF92CF92DF92EF925B
:101D4000FF920F931F93CF93DF9300D01F92CDB7D5
:101D5000DEB7F82ED62EE42E622E9091170390FF58
:101D6000C5C0E92FE695AE2FB0E0A258BE4F8C91CA
:101D700080935B029E7F923061F49E012F5F3F4F04
:101D80008F2D0E94D60C4B8169818A810E94FC0DA7
:101D900062C0823019F4E0901A035DC0863019F4F5
:101DA000F090180358C08930D9F3893109F053C035
:101DB000E9518E2F8170782E81E0C72CC826E695D8
:101DC000F0E0ED5EF74FA590B490412CBB2494E673
:101DD000892E94E0992E60912C014616D0F5042DA1
:101DE00010E00A9DC0010B9D900D1A9D900D1124CD
:101DF00070E00E94BD325F2C711002C0560E01C00F
:101E0000561A8091F20280FF11C0BF92AF921F92CA
:101E1000CF921F925F921F924F929F928F920E9439
:101E200087060FB6F894DEBF0FBECDBF80912A01A2
:101E3000080F111D9801220F331F020F131F980165
:101E4000245E3C4F4E2D6D2D852D0E94D60C439463
:101E5000C2CF0E94D80D80911803F81208C080915B
:101E60001903D81204C080911A03E81629F0809152
:101E70005D02826080935D02F0921803D092190394
:101E8000E0921A036620E9F060911703709118033D
:101E90008091190390911A030E94FB0C8091F20229
:101EA00080FF24C080911A031F928F9380911903A1
:101EB0001F928F93809118031F928F938FE394E06A
:101EC0000CC08091F20280FF11C01F92EF921F920E
:101ED000DF921F92FF9288E194E09F938F930E947C
:101EE00087060FB6F894DEBF0FBECDBF0F900F90E0
:101EF0000F90DF91CF911F910F91FF90EF90DF90A6
:101F0000CF90BF90AF909F908F907F906F905F9099
:101F10004F900895E7E1F3E09181282F438162819A
:101F200088E0890F0C94950E81E00C948A0FE7E10C
:101F3000F3E09181282F4381628188EF890F0C940F
:101F4000950E81E00C94970FE7E1F3E0628121E1C7
:101F5000620F08F46FEF282F438181810C94950E56
:101F600081E00C94A40FE7E1F3E0628121E1621BC0
:101F700008F460E0282F438181810C94950E81E064
:101F80000C94B30FE7E1F3E0438121E1420F08F441
:101F90004FEF282F628181810C94950E81E00C9483
:101FA000C20FE7E1F3E0438121E1421B08F440E086
:101FB000282F628181810C94950E81E00C94D10FC1
:101FC00021E00C94950E20E00C94950EFF920F9357
:101FD0001F93CF93DF93EC01F12C0FEF10E0609192
:101FE0002C01F616F0F480912A012F2D30E0280FF5
:101FF000311DC901880F991F280F391F245E3C4FDE
:1020000070E0C8010E94D132962F8C8140911A0352
:1020100060911903F99E800D11240E94D60CF3944F
:10202000DECF0E94D80D9A818C8190FF02C08F5F15
:1020300001C081508C83DF91CF911F910F91FF9050
:1020400008958F929F92AF92BF92CF92DF92EF92BC
:10205000FF920F931F93CF93DF93EC018A8180FF50
:1020600003C0BB24BA9402C0BB24B3948C818111F9
:102070000DC081E0B81206C080912C018150809380
:10208000140202C01092140281E08C83A12C4CE057
:10209000942E80912C01A81608F044C080912A014A
:1020A000CA2CD12C8601080F111DC801880F991F59
:1020B000080F191F045E1C4FF80111821082128252
:1020C00034E0E32EF12C812C80911402880D8D30A8
:1020D0002CF0692D0E94AF32892F05C087FF03C005
:1020E00090912C01890F082E000C990BC816D90667
:1020F00091F480911A038E9DA0018F9D500D1124A3
:10210000559547955595479598016091190380918C
:1021100018030E94D60C8B0CF1E0EF1AF108A1F61F
:10212000A394B7CF0E94D80D8091140291E0B91208
:102130000EC0811107C080912C0181508093140240
:102140001C820FC0815080931402BC820AC090E0B0
:10215000019660912C0170E00E94D13280931402AC
:102160008C83DF91CF911F910F91FF90EF90DF90C3
:10217000CF90BF90AF909F908F9008951F93CF9373
:10218000DF93EC018C81811109C081E08C83109276
:10219000130292E0909327018093260180912A01F7
:1021A00090912B01891770F4E82FF0E09F01220F26
:1021B000331FE20FF31FE45EFC4F11821082128284
:1021C0008F5FF0CF10E060912C011617C0F5E12F62
:1021D000F0E070E0CF010E94D13220912A01820FFD
:1021E00020911302022E000C330B90E0E217F3074C
:1021F000CCF020912701022E000C330B2E173F0745
:102200008CF09C01220F331F820F931F9C01245ED0
:102210003C4F40911A0360911903809118030E946A
:10222000D60C0BC0FC01EE0FFF1F8E0F9F1FFC0191
:10223000E45EFC4F1182108212821F5FC4CF0E94A5
:10224000D80D8091260120911302280F20931302AC
:1022500090912701980F9093270119165CF4022E94
:10226000000C330B40912C0150E0415051092417D0
:10227000350734F0819580932601813009F41C8262
:10228000DF91CF911F9108958F929F92AF92BF924D
:10229000CF92DF92EF92FF920F931F93CF93DF9332
:1022A0008C01FC014481C42FD0E09E01DE010E941C
:1022B00015339B01AC010E942B336B017C01E0E2E2
:1022C000F0E0EC1BFD0BA5E5B0E09B01AC010E942A
:1022D0002B334B015C019F01DF010E940D339B01F9
:1022E000AC010E9436339B01AC012C0D3D1D4E1DEF
:1022F0005F1DC501B4010E94E532C22FD22F2A32E0
:1023000028F4F3E02F9F900111240DC025E530E063
:102310002C1B3109C901880F991F280F391F37FF5E
:1023200002C02F5F3F4F35952795C22FC095F12CE6
:1023300085E5E82EED1A80912C01F816C8F4F1FC21
:1023400002C08E2D01C08D2F90912A012F2D30E0DB
:10235000290F311DA901440F551F240F351F245E7D
:102360003C4F4C2F609119030E94D60CF394E3CF9D
:102370000E94D80DF8018481811102C091E003C050
:10238000803219F49FEF9093250190912501890FD8
:10239000F8018483DF91CF911F910F91FF90EF900F
:1023A000DF90CF90BF90AF909F908F9008950F9344
:1023B0001F93CF93DF93EC0100E010E080912C019C
:1023C000282F30E00217130724F590912A01980175
:1023D000290F311DA901440F551F240F351F245EFD
:1023E0003C4F869590E04C81081719071CF4442354
:1023F00031F002C0411103C040911A0301C040E016
:1024000060911903809118030E94D60C0F5F1F4F33
:10241000D5CF0E94D80D8C8190E0019681709927CC
:102420008C83DF91CF911F910F9108958F929F928E
:10243000AF92BF92CF92DF92EF92FF920F931F93D2
:10244000CF93DF93FC01B280948081E0848300E02D
:1024500015E05BE4A52E88248394EE24EA94F12C05
:102460007BE4C72ED12C80912C01081708F08FC077
:10247000C02FD0E01C9FF0011D9FF00D1124E85EDD
:10248000FD4F911003C01382128267C02381222363
:1024900089F1215023833481332319F09A2D921B23
:1024A00001C0922F80911A031C9FF0011D9FF00D17
:1024B0001124E85EFD4F899FC0011124B6010E94DE
:1024C000BD326283211104C0332311F01482A38230
:1024D00022E02B1508F441C01C9FF0011D9FF00D58
:1024E0001124E85EFD4F80911803808380911903C9
:1024F000818333C00E948A338230914074F582E038
:102500008B1530F40E948A33B7010E94D13202C089
:10251000809118031C9FF0011D9FF00D1124E85EAF
:10252000FD4F808322E02B1558F40E948A332091BE
:1025300019032695622F70E00E94D132820F02C0EB
:10254000809119031C9FF0011D9FF00D1124E85E7E
:10255000FD4F81831282A382848280912A019E0191
:10256000280F311DC901880F991F280F391F245EBC
:102570003C4F1C9FF0011D9FF00D1124E85EFD4FA4
:102580004281618180810E94D60C0F5F6CCFDF9108
:10259000CF911F910F91FF90EF90DF90CF90BF9060
:1025A000AF909F908F900C94D80D80915D0208950C
:1025B00010925D02089525E0E7E1F3E0DC0101906F
:1025C0000D922A95E1F720915B0230915C024091D7
:1025D0005D02FC012583368347830895EBE5F2E035
:1025E00011828281846082830895609117036695C9
:1025F00070E04BE050E08DE291E00E949A33892B2D
:1026000019F481E080935C020E94B02A90935502F5
:102610008093540280915D02846080935D0280917A
:10262000F20280FF08C08FEF93E09F938F930E9488
:1026300087060F900F90089510925C0280915D02C2
:10264000846080935D028091F20280FF08C086EE74
:1026500093E09F938F930E9487060F900F900895A9
:102660009091170390FF59C09170811102C0926040
:1026700006C08B3210F0946502C0880F982B90939F
:10268000170380915D02816080935D026623B1F043
:1026900060911703709118038091190390911A03A8
:1026A0000E94FB0C8091F20280FF1BC080911703F7
:1026B00086951F928F9389E895E00BC08091F20276
:1026C00080FF0FC08091170386951F928F938BE632
:1026D00095E09F938F930E9487060F900F900F9025
:1026E0000F9060911703669570E04BE050E08DE22B
:1026F00091E00E949A33892B19F00E941C1302C0AA
:102700000E94F51281E08093570240911A03609174
:102710001903809118030C94E30F0895682F90918A
:102720001703969581E0890F8B3208F081E00C94B5
:10273000301381E00C948E13682F909117039695B7
:102740008FEF890F09F48AE20C94301381E00C9426
:102750009C1361E00C943013809117038160809387
:1027600017038091F20280FF0DC01F9281E08F93CA
:102770008DEF94E09F938F930E9487060F900F90A8
:102780000F900F908091170386950C94A91360E029
:102790000C94301380915A02811165C08091F2022D
:1027A00080FF08C08CE296E09F938F930E9487067B
:1027B0000F900F908091F20280FF08C086E196E0B2
:1027C0009F938F930E9487060F900F900E94252958
:1027D000811110C08091F20280FF08C08EEE95E05A
:1027E0009F938F930E9487060F900F900E94CE298F
:1027F0000E940D0D0E94F70C60931703709318034D
:102800008093190390931A0380915D0283608093F3
:102810005D026E7FC1F48091F20280FF08C085EAFC
:1028200095E09F938F930E9487060F900F900E94D0
:102830000D0D0E94F70C609317037093180380939B
:10284000190390931A030E94E40C0E94240D0E9425
:10285000EE128091170380FF03C086950E94C71374
:1028600081E080935A020895809117038E7F8093B0
:1028700017036091170370911803809119039091C9
:102880001A030E94FB0C8091F20280FF0FC080911E
:10289000170381701F928F9385EC94E09F938F9321
:1028A0000E9487060F900F900F900F900E941C13AC
:1028B00080915D02816080935D022FEF80E792E05E
:1028C000215080409040E1F700C000000C94D80DEA
:1028D0008091F20280FF10C0809117038095817073
:1028E0001F928F9384E395E09F938F930E948706B6
:1028F0000F900F900F900F908091170380FD0C9414
:1029000034140C94AC13809117038E7F80931703BB
:102910008091F20280FF0CC01F921F928BE894E01E
:102920009F938F930E9487060F900F900F900F90A8
:102930000E941C1380915D02816080935D022FEFE5
:1029400080E792E0215080409040E1F700C0000015
:102950000C94D80D1F93CF93DF93EC01162F8F812A
:1029600080FF0FC0888180FF0AC0809117038160BB
:1029700080931703888186950E94301302C00E94BD
:1029800083148F8181FF06C0212F4B816A81898149
:102990000E94950E8F8182FF08C08E81882319F0D6
:1029A0000E94F51202C00E941C138F8183FF03C096
:1029B00081E080935702DF91CF911F910895EF92AC
:1029C000FF920F931F93CF93DF9380915C02882334
:1029D00009F4CEC080915B02E0911703E695E81BF5
:1029E000E0935602823049F4F0E0E15FF84FE49161
:1029F000CE2FD0E001E31EE059C0863049F4F0E06C
:102A0000E45FF84FE491CE2FD0E005E41EE04EC025
:102A1000893051F4E695F0E0E75FF84FE491CE2F6E
:102A2000D0E006EE1FE042C08F3051F4E695F0E0B2
:102A3000EA5FF84FE491CE2FD0E001E210E136C01A
:102A4000853149F4F0E0ED5FF84FE491CE2FD0E00E
:102A50000EEB10E12BC08831D9F0833239F4E1E07C
:102A6000F7E0C591D49105E51EE020C08432A9F0BD
:102A70008532C1F48E2F63E00E94A332E92FF0E08B
:102A8000E250F94FE491CE2FD0E006E112E10EC002
:102A9000C8E2D0E004E411E109C0C4EFD1E007EDE1
:102AA00011E104C0C0EDD7E00DEC1CE080915702AD
:102AB000882389F0109257020E94B02A9E01209527
:102AC0003095820F931F9093550280935402109279
:102AD00059021092580280915402909155020E941E
:102AE000BC2A8C179D0708F443C0809117028823E5
:102AF00011F11092170280911502909116020E9416
:102B0000BC2A80339547B8F00E94B02A90931602F1
:102B1000809315028091F20280FF08C08DEB93E054
:102B20009F938F930E9487060F900F9080915D0274
:102B3000886080935D02E0905802F0905902E09125
:102B40005402F0915502CE0FDF1FD0935502C0936F
:102B5000540284E592E0F801099580915802909121
:102B60005902892B29F4EF2819F081E0809317028C
:102B7000DF91CF911F910F91FF90EF9008958823DF
:102B800011F0FA0101C0FB010994CF93DF93C82F24
:102B9000D62F0E949F0D8C1740F00E949F0D8D171D
:102BA00020F4DF91CF910C9499138C2FDF91CF916A
:102BB0000C94A9131F93CF93DF93FB011281111182
:102BC00063C0EC010E946F288272FE01E35CFC4549
:102BD000E431F10508F057C0EA5AFF4F0C9407336F
:102BE0000E94681451C046EA53E169E973E104C0E8
:102BF00049E953E166EA73E10E94BF1545C041EA25
:102C00005FE064E97FE0F8CF44E95FE061EA7FE0FC
:102C1000F3CF4FEB5FE060EB7FE0EECF40EB5FE0A8
:102C20006FEB7FE0E9CF4DED5FE06EEC7FE0E4CF4E
:102C30004EEC5FE06DED7FE0DFCF42ED5DE06BEBF2
:102C40007DE0DACF4BEB5DE062ED7DE0D5CF81E05A
:102C500017C065E082E010C068E086E00DC06EE05D
:102C600089E00AC064E18FE007C067E185E104C044
:102C700088E106C062E289E10E94C51505C083E2D1
:102C80000E94A91301C011E0812FDF91CF911F9104
:102C90000895809140038170089580914003869546
:102CA0008695869508950E942529811102C00E946B
:102CB000CE290E94562980934003282F26952695D9
:102CC000269530E02630310524F0877088628093A5
:102CD00040038091400380FF04C0869586958695C9
:102CE00001C080E00C94CE1720914003822F86957E
:102CF00086958695482F50E04530510554F48F5FF6
:102D0000982F990F990F990F822F8770892B809395
:102D10004003809140038160809340030E945A29C0
:102D20008091F20280FF11C08091400386958695C4
:102D300086951F928F938FE798E09F938F930E94C1
:102D400087060F900F900F900F908091400386950B
:102D5000869586950C94CE1780914003982F969572
:102D600096959695A1F0915E990F990F990F87709E
:102D7000892B80934003887F91E009F490E0809153
:102D8000400390FB80F9809340030E945A29809170
:102D9000F20280FF11C0809140038695869586954A
:102DA0001F928F9387E698E09F938F930E948706E8
:102DB0000F900F900F900F9080914003869586950D
:102DC00086950C94CE178091400380FD1FC08160D2
:102DD00080934003813019F489E08093400380910F
:102DE00040030E945A298091F20280FF08C08FE3BD
:102DF00098E09F938F930E9487060F900F90809189
:102E000040038695869586950C94CE1708958091FB
:102E1000400380FF14C08E7F809340030E945A2994
:102E20008091F20280FF08C08CE298E09F938F931C
:102E30000E9487060F900F9080E00C94CE170895A3
:102E4000CF93C0914003C1708091F20280FF0CC00B
:102E50001F92CF9381E598E09F938F930E948706FE
:102E60000F900F900F900F90CC2319F0CF910C94EE
:102E70000717CF910C94E31690914003892F869504
:102E8000869586958F5F8F719770863038F4880F9E
:102E9000880F880F892B8093400302C090934003D2
:102EA00080914003887F91E009F490E08091400395
:102EB00090FB80F9809340030E945A298091F2028E
:102EC00080FF11C0809140038695869586951F925C
:102ED0008F9388E198E09F938F930E9487060F90CD
:102EE0000F900F900F908091400386958695869560
:102EF0000C94CE17863008F085E0909140039770CF
:102F0000282F220F220F220F922B90934003987F9D
:102F100021E009F420E09091400320FB90F9909388
:102F200040030C94CE170E947A17809140030C94B2
:102F30005A299C01FB018281882349F12E3BFCE543
:102F40003F07C9F040F42C3BECE53E0769F02D3B10
:102F50003C4561F00895203C9CE5390791F070F004
:102F6000213C3C4589F0089585E001C080E00E9445
:102F7000931780E008950E94AC16FBCF0E94741650
:102F8000F8CF0E942017F5CF0E943C17F2CF81E0C6
:102F90000895259A2D9808952D980895CF92DF923F
:102FA000EF92FF92CF93C82F863050F4811109C061
:102FB000809180008F77809380000E94CC1706C09C
:102FC000C5E0809180008068809380002C2F30E0E5
:102FD000AFEFBFEF0E94153325E030E040E050E056
:102FE0000E94E532B42FA32F922F8827492F5A2F02
:102FF0006B2F7727CA014C3724E1520728F469E088
:1030000070E00E94BD3229C0DB01CA018A50974D91
:10301000AF4FBF4F6627782F892F9A2F25EF38E2C1
:1030200041E050E00E94E53269017A01CA01B9012C
:103030000E9493329B01AC01C701B6010E949332FA
:10304000BB27A92F982F872F009721E0A207B10552
:1030500011F0BC0102C06FEF7FEF709389006093A5
:103060008800CF91FF90EF90DF90CF900895089562
:103070000E94C91782E88093800089E180938100D3
:103080008FEF9FEF90938700809386000C945316E8
:10309000569A2BB12F7B3BB130644FB7F894FC01AB
:1030A000CB01880F991F680F791F6E0F7F1FE617DE
:1030B000F70789F0819198E03BB9000000C087FFD5
:1030C0002BB9880F000000C000C000C02BB900C0A1
:1030D0009A9591F7ECCF4FBF8FE594E00197F1F708
:1030E00000C00000089508950C9473188091140195
:1030F000882309F447C020913901A22FA295AF700F
:10310000B0E091963C9191972F7081E090E0AC01F6
:10311000022E01C0440F0A94EAF7542F509535232C
:1031200091963C93919792963C919297432B9296CD
:103130004C93929740913801E42FE295EF70F0E0C4
:1031400031A14F70042E01C0880F0A94EAF7982F1E
:103150009095932391A392A1892B82A390968C9111
:1031600090E002C0959587952A95E2F7817020A19D
:1031700030E002C0359527954A95E2F720FD09C059
:1031800090E008C087EF8093390186EF8093380183
:10319000B2CF92E0892B809363029091140181E079
:1031A000982790935F02891B80935E020895CF93C6
:1031B000E09163025E2F550F550F20913901E22FE8
:1031C000E295EF70F0E080A190E02F7002C095953D
:1031D00087952A95E2F78170992740913801E42F6D
:1031E000E295EF70F0E020A130E04F7002C035951D
:1031F00027954A95E2F7F901E170FF2720FF02C009
:10320000E2E0F0E0E82BF92BE52BE0936302C091BC
:103210005F02EF70F0E0E755FE4F9081809162020F
:10322000890F8093620284306CF0EC2F0C2E000C1E
:10323000FF0BE05AFD4F80818F5F808360E08C2F11
:103240000E947418809162028D3F6CF4EC2F0C2E5A
:10325000000CFF0BE05AFD4F80818150808361E0BC
:103260008C2F0E94741880916202082E000C990B1A
:1032700064E070E00E94D13280936202CF910895A1
:10328000E0915F02F0E0E05AFD4F2081FC012083D5
:103290000895FF920F931F93CF93DF93D0915E0217
:1032A0000D2F10E0005A1D4FFC01C081F8018081F4
:1032B000C81BFC2E1F1454F4FA94F80180818F5F10
:1032C000808360E08D2F0E947418F4CF8C2FC7FD8F
:1032D00080E0C81BCC2351F0CF5FF8018081815082
:1032E000808361E08D2F0E947418F4CFDF91CF911D
:1032F0001F910F91FF9008950F931F93CF93DF932A
:10330000C42FD22FFC0182818823C9F0409366022A
:103310000E94B02A909365028093640280E28C0F31
:10332000883008F057C0C77081E001C0880FCA9587
:10333000EAF7DF91CF911F910F910C94202080919B
:103340006602481330C080916402909165020E9429
:10335000BC2A883C910538F510E21D0FCD17B9F055
:1033600080E28C0F883040F4C77081E001C0880F84
:10337000CA95EAF70E942720183028F581E09D2F92
:10338000977001C0880F9A95EAF70E942020802F3D
:103390000E940D201830F0F4D77081E001C0880F32
:1033A000DA95EAF70AC080E28C0F883098F4C7708B
:1033B00081E001C0880FCA95EAF7DF91CF911F9194
:1033C0000F910C942720802FDF91CF911F910F91A7
:1033D0000C940D20DF91CF911F910F9108950F93C1
:1033E0009C01CB01243F4CE5340731F188F4293DA1
:1033F000FCE53F07D9F02A3D4CE5340779F1283D3B
:103400003C45A9F506E221EE41EE68ED7CE52BC0D6
:10341000263FFCE53F07E1F0A8F0273F3C4539F5A2
:1034200007E225EE46EE67EF7CE51DC007E225EEDC
:1034300045EE69ED7CE517C006E221EE40EE64EF53
:103440007CE511C007E225EE44EE65EF7CE50BC09C
:1034500006E221EE42EE66EF7CE505C008E221E0DF
:1034600045EE6AED7CE50E947C1980E008C0FC0115
:103470008281882319F01092660201C081E00F91C9
:103480000895CF93DF93EC01FB018281882309F437
:103490001FC1C230FCE5DF0708F41BC1C6319CE543
:1034A000D90738F09E012B5F3C452930310508F0E3
:1034B00010C10E9438299093460380934503C03180
:1034C000ECE5DE0709F4C3C008F041C0C8308CE564
:1034D000D80709F49AC0F0F4C430ECE5DE0709F42B
:1034E00087C068F4C2308CE5D80709F477C0C330D0
:1034F000DC4509F0E3C080914503826076C0C630A8
:10350000ECE5DE0709F46EC008F07BC0809145034E
:1035100088606BC0CC308CE5D80709F485C068F4AE
:10352000CA30ECE5DE0709F474C008F079C00E94E7
:10353000A12280914503806858C0CE308CE5D80721
:1035400009F476C008F07FC0809145038BC0CC3F62
:10355000ECE5DE0709F44FC018F5C3318CE5D80758
:1035600009F47DC078F4C131ECE5DE0709F473C0DD
:10357000C231DC4509F0A2C00E94A122809145031E
:103580008F7733C0C5318CE5D80709F472C008F4D1
:1035900086C0CB3FDC4509F091C0809146033EC018
:1035A000C115FDE5DF0709F45FC058F4CE3F9CE587
:1035B000D90709F444C008F43FC0809146038260F3
:1035C0002DC0C230FDE5DF0709F475C008F45DC009
:1035D000C330DD4509F072C080E06EC080914503C4
:1035E000816003C08091450380618093450366C07C
:1035F0008091450311C08091460382608093460309
:103600005DC0809145038062F0CF80914503806466
:10361000ECCF8091450388608460E7CF8160EECF76
:10362000809145038E7FE1CF809145038D7FDDCF73
:1036300080914503877FD9CF8091460318C0809140
:1036400046038D7FDBCF809145038F7ECECF809167
:1036500045038F7DCACF809145038F7BC6CF809174
:103660004503877F8B7FC1CF809146038D7F8E7FFF
:10367000C5CF8091450382FB222720F991E0922754
:1036800090FB82F990FB83F9B0CF80914603982F8D
:10369000909591708E7F892B90FB81F9AFCF0E941E
:1036A000A1228091450387FB222720F991E09227F0
:1036B00090FB87F99ACF81E00E94D0298091450341
:1036C000909146030E9449290E94A12280E001C0F6
:1036D00081E0DF91CF910895CF93DF9386319C45B0
:1036E00041F5EB010E946F28982F8A8120913A01C1
:1036F00030913B01882379F09A7A81E009F480E0E7
:1037000080936702911102C069E201C065E3C901BB
:103710000E94172A0AC080916702811102C069E2E3
:1037200001C065E3C9010E94192A0E94BD2880E0FA
:1037300001C081E0DF91CF9108958EE1489B02C0E6
:103740008150E1F7489BFECF0895589880E28A9512
:10375000F1F7589A0895FC012AE02A95F1F790E0D4
:1037600020E080E031E0261779F040E14A95F1F75A
:10377000880F489B02C08160932700C0000040E191
:103780004A95F1F72F5FEFCF20E12A95F1F729B1A4
:1037900000C0000030E13A95F1F7217092272081B6
:1037A000920F90830895EF92FF920F931F93CF9300
:1037B000DF931F92CDB7DEB719828C017C01E60E34
:1037C000F11C0E151F0559F00E949D1B68E0CE01EB
:1037D00001960E94AB1BF80181938F01F2CF81E02B
:1037E0009981911180E00F90DF91CF911F910F91FE
:1037F000FF90EF90089590936A028093690260931E
:103800006802509A589A089590936A0280936902C8
:10381000609368025098589AE89AE9E6F0E080814F
:103820008C7F80830895615091E001C0990F6A9563
:10383000EAF720E031E0992361F0492F482319F09D
:10384000589A232701C0589840E24A95F1F7969577
:10385000F2CF222311F0589A01C0589880E28A953D
:10386000F1F758980895FF920F931F93CF93DF932A
:10387000EC018C01060F111DC017D10741F0F99022
:103880000E94A51B68E08F2D0E94131CF5CFDF91CD
:10389000CF911F910F91FF9008951F920F920FB635
:1038A0000F9211240F931F932F933F934F935F9386
:1038B0006F937F938F939F93AF93BF93EF93FF93F8
:1038C000CF93DF931F92CDB7DEB719820E949D1B65
:1038D00067E0CE0101960E94AB1B382F36953695D6
:1038E0003695932F96959570232F2570920F292F3B
:1038F0002370969596958770920F891348C0898199
:10390000811145C080916802831708F440C080E1AE
:103910008A95F1F7589A509AA2E0AA95F1F700C05B
:103920000091690210916A02B8E03B9F000D111DE1
:1039300011245898F8016581662321F086819781CA
:103940000E94331C0E94A51BF0E1FA95F1F75898EC
:103950005098589A80E18A95F1F7D80112966C91A7
:103960001297662369F013968D919C9114970E948B
:10397000D31BD801ED91FC91811105C082E004C0F8
:10398000D801ED91FC9188E080830E949D1B0F90EF
:10399000DF91CF91FF91EF91BF91AF919F918F9167
:1039A0007F916F915F914F913F912F911F910F9157
:1039B0000F900FBE0F901F9018950F931F93CF93EA
:1039C000DF932091680230E0281739070CF471C0AA
:1039D0009C0193E0220F331F9A95E1F7C091690291
:1039E000D0916A02C20FD31FF894509A589845E0BC
:1039F0004A95F1F70000982F969595708570890F7C
:103A0000982F937086958695890F8901082B0E94BF
:103A1000A51B84E08A95F1F700C067E0802F0E9423
:103A2000131C40E14A95F1F75098589A489902C002
:103A300000C0FCCF87E090E0489B0EC0019751F496
:103A4000509A589AE881F98181E08083789481E0E6
:103A500090E031C000C0F0CF6D81662381F08E818F
:103A60009F810E94D31B81110AC0509A589AE88105
:103A7000F98182E08083789482E090E01CC00E940B
:103A80009D1B80E28A95F1F75898509A40E14A953B
:103A9000F1F76A81662321F08B819C810E94331C9F
:103AA0000E94A51BE881F9811082789480E090E063
:103AB00002C084E090E0DF91CF911F910F910895B3
:103AC0009093700280936F020895E0916F02F091DD
:103AD0007002309721F00190F081E02D099480E090
:103AE0000895EF92FF920F931F93CF93DF93E0918E
:103AF0006F02F09170023097B1F18C010280F38176
:103B0000E02D09958091F20282FF2DC080FF04C054
:103B10008FE999E00E94EE05E80118E089E9E82EB6
:103B200089E0F82E8091F20280FF0BC088811F92FD
:103B30008F93FF92EF920E9487060F900F900F9045
:103B40000F90115021961111EDCF8091F20280FF5C
:103B50000AC087E999E0DF91CF911F910F91FF9003
:103B6000EF900C94EE05DF91CF911F910F91FF9094
:103B7000EF90089520916D0230916E022817390759
:103B800071F090936E0280936D02E0916F02F0915C
:103B90007002309721F00680F781E02D0994089596
:103BA00020916B0230916C022817390771F09093C5
:103BB0006C0280936B02E0916F02F091700230977B
:103BC00021F00084F185E02D0994089585B780687F
:103BD00085BF85B7806885BF08950C948E0B0895C6
:103BE0000C94EF1D0C94EF1D0C94F21D0C94EF1D22
:103BF0000C94F61D0C94EF1D0E94E61D0E94FA1D08
:103C00000C94F81D0E94A72A0E94130A0E94152BEB
:103C10000E9453160E94CA130E9476180C94F41D39
:103C2000CF93C82F8091F20282FF1EC080FF04C094
:103C300088EB99E00E94EE058091F20280FF0CC0B3
:103C40001F92CF9383EB99E09F938F930E948706F7
:103C50000F900F900F900F908091F20280FF04C0A0
:103C600081EB99E00E94EE058C2FCF910C94910787
:103C7000AF92BF92CF92DF92EF92FF920F931F937A
:103C8000CF93DF93CDB7DEB72A970FB6F894DEBF98
:103C90000FBECDBF0E94F01D0E94EF1D0E94CA0AF8
:103CA0000E94ED1D811111C08FEF89838A831B82D1
:103CB0000E94B02A8160782F9D838C8349815A812C
:103CC0006B818D810E94D81E40C082E7A82E82E0C1
:103CD000B82E00E010E0C02E802F0E94A209E82E2E
:103CE000F501D1905F01D82631F40F5F1F4F0A30E4
:103CF000110589F7D9CF8091F20281FD0E94A809B0
:103D000080E0FF24F3949D2D9F21D1F08E83CF82FC
:103D1000EF2081E009F480E088870E94B02A81606A
:103D2000782F9A8789874E815F8168858A850E946E
:103D3000D81EF801EE58FD4F8081F826F08205C0AC
:103D40008F5FFF0C8630F9F6D0CF0E94DF140E94FF
:103D500037180E94D7180E94651D9091710289172B
:103D6000B1F00E94651D809371022A960FB6F894F7
:103D7000DEBF0FBECDBFDF91CF911F910F91FF909E
:103D8000EF90DF90CF90BF90AF900C94101E2A96CA
:103D90000FB6F894DEBF0FBECDBFDF91CF911F915C
:103DA0000F91FF90EF90DF90CF90BF90AF9008956C
:103DB000CF93DF93CDB7DEB72B970FB6F894DEBF66
:103DC0000FBECDBF4F83588769877A878B87DE0107
:103DD000119686E0FD0111928A95E9F785E0FE01D2
:103DE000379601900D928A95E1F749815A816B814E
:103DF0007C818D819E810E945A252B960FB6F89466
:103E0000DEBF0FBECDBFDF91CF910895FC01808151
:103E100091810E9430280895CF93882309F49CC093
:103E2000C82F8238C1F40E94651D81FD95C069E3E9
:103E300080913A0190913B010E94172A0E94BD286F
:103E40002FEF81EE94E0215080409040E1F700C0D8
:103E5000000069E319C0833801F50E94651D80FDEB
:103E60007BC063E580913A0190913B010E94172A43
:103E70000E94BD282FEF81EE94E0215080409040B9
:103E8000E1F700C0000063E580913A0190913B01A9
:103E90000E94192ACF910C94BD288438C1F40E9445
:103EA000651D82FD59C067E480913A0190913B0104
:103EB0000E94172A0E94BD282FEF81EE94E0215026
:103EC00080409040E1F700C0000067E4DDCF8CEF58
:103ED0008C0F813AD0F46C2F80913A0190913B0184
:103EE0000E94E129882349F06C2F80913A0190913A
:103EF0003B010E94192A0E94BD286C2F80913A0133
:103F000090913B010E94172AC5CF80E28C0F883028
:103F100048F4C77081E001C0880FCA95EAF70E9493
:103F20007228B8CFEBE5EC0FE33040F4F0E0E95154
:103F3000FE4F808190E0CF910C94BA1DC85AC731D2
:103F400058F4EC2FF0E0EE0FFF1FE754FE4F808196
:103F50009181CF910C94D01DCF910895882309F4BD
:103F60005BC0682F823879F40E94651D81FF54C0C0
:103F700069E380913A0190913B010E94172A0E94C7
:103F8000BD2869E310C08338B1F40E94651D80FF2D
:103F900043C063E580913A0190913B010E94172A4A
:103FA0000E94BD2863E580913A0190913B010E94F7
:103FB000192A0C94BD28843879F40E94651D82FF6B
:103FC0002BC067E480913A0190913B010E94172A2F
:103FD0000E94BD2867E4E7CF8CEF860F813A18F383
:103FE00080E2860F883048F4677081E001C0880F56
:103FF0006A95EAF70E947828DCCF8BE5860F83303C
:1040000020F480E090E00C94BA1D685A673120F4E7
:1040100080E090E00C94D01D0895CF93C82F0E94AB
:104020000C1FC93349F42FEF87EE93E021508040F5
:104030009040E1F700C000008C2FCF910C94AE1F90
:10404000882321F00E9472280C94BD2808958823AB
:1040500021F00E9478280C94BD280895CF92DF9219
:10406000EF92FF920F931F93CF93DF937C01062F64
:10407000C72FFC01158112951F70D281D1110E94AA
:104080008F280E946828882399F0DD2389F08C2FDF
:10409000807F803421F080E2800F883048F082E019
:1040A0000E9407290E94682891E0D82ED92601C0D5
:1040B000D12CCC2EC2948FE0C8228C2D90E0FC0134
:1040C000E659FF4F0C9407338C2F807FCF708823E5
:1040D00011F0C295C07FDD2399F0CC2309F482C191
:1040E00080E2800F883010F0011104C08C2F0E94F4
:1040F000722803C08C2F0E9482280E94BD2872C1A2
:10410000802F0E94AE1FCC2309F491C180E2800F62
:10411000883010F0011104C08C2F0E94782803C051
:104120008C2F0E9488280E94BD2881C18C2F807FFF
:10413000CF70803211F0C295C07F002319F001309A
:10414000C9F022C0DD2371F0112341F0113031F4A8
:104150000E94A2288C2B0E94AA2869C10E94A22832
:104160008C2B1DC0112319F0113009F460C10E947D
:10417000B32825C0DD2321F0163008F058C10EC049
:10418000153008F054C11BC0DD2361F0112331F05C
:10419000F701858180FF26C18F7085838C2F0E9457
:1041A000202045C1112359F0093309F02CC1FFEF3C
:1041B00027EE83E0F15020408040E1F722C18C2FB0
:1041C0000E94272034C18C2F86958695837019F024
:1041D000813061F02CC1DD2321F0802F9C2F937062
:1041E00002C080E090E00E94BA1D29C1DD2321F0C9
:1041F000802F9C2F937002C080E090E00E94D01D21
:104200001EC18C2F837009F045C0D11114C1402FFD
:10421000429546954770440F440F602F6F70862F6C
:1042200090E0A0E0B0E0042E04C0880F991FAA1F00
:10423000BB1F0A94D2F704FF10C00FE010E020E08B
:1042400030E004C0000F111F221F331F4A95D2F720
:10425000009510952095309503C000E010E098017E
:10426000C695C695C370BC01CD01602B712B822B06
:10427000932BC23049F058F4C13019F00E94AB269C
:10428000DAC00E949926D7C00E94BD26D4C00E94E1
:104290009726D1C0DD2319F08C2F817001C086953F
:1042A000882309F4C8C0402F429546954770440FB3
:1042B000440F602F6F70862F90E0A0E0B0E0042ED6
:1042C00004C0880F991FAA1FBB1F0A94D2F704FFCE
:1042D00010C00FE010E020E030E004C0000F111F1C
:1042E000221F331F4A95D2F70095109520953095DF
:1042F00003C000E010E09801C695C695C370BC01EC
:10430000CD01602B712B822B932BC23049F058F4D6
:10431000C13019F00E9470278EC00E945E278BC0AA
:104320000E94822788C00E94D12685C0CF70DD23DD
:1043300039F08C2F0E94F726802F0E9420207BC00E
:10434000802F0E9427208C2F0E94182774C0023FC4
:1043500001F128F4003F41F0013FA1F03FC0033FCD
:10436000F9F0043F39F13AC0DD2341F0153008F08F
:104370005EC08C2F8F710E943D2759C0163008F007
:1043800056C0F7CFDD2339F08C2F8F710E94F726AE
:104390004EC0DD23C9F38C2F8F710E94182747C0B0
:1043A000DD2329F08C2F8F710E94E22640C00E94ED
:1043B000DD263DC0DD2349F0CF718C2F0E94F7260A
:1043C00063E08C2F0E94F22832C081E00E9407290E
:1043D000123068F182E00E94072929C0DD2331F004
:1043E000112391F2802F0E940C1F21C0112399F2FA
:1043F000093349F49FEFE7EEF3E09150E040F040DD
:10440000E1F700C00000802F0E94AE1F10C04C2FAB
:104410004F70602FC7010E949A070E9408260FC0A4
:104420004C2F4F70602FC7010E949D0708C088EF76
:104430008C0D843020F40E94651D0E949107DD20C0
:10444000C9F00E94642880FD15C0F70112820E9405
:104450005E280E94F726C7010E945B220E945E2808
:10446000DF91CF911F910F91FF90EF90DF90CF9050
:104470000C941827DF91CF911F910F91FF90EF902F
:10448000DF90CF9008950F931F93CF93DF93EC01AC
:10449000688179818A810E943B288C010E9494273F
:1044A0000E948526B801CE010E942E20DF91CF9177
:1044B0001F910F910895CF93DF93EC01988189812B
:1044C0002B813C81232B31F08F3F31F481E09F3FE2
:1044D00019F403C081E001C080E080FD19C0CE0165
:1044E0000E94120781110CC00E946828882381F065
:1044F0008A81882369F082E0DF91CF910C940729AB
:10450000CE010E944322CE01DF91CF910C94EB06A5
:10451000DF91CF9108950E948F280E949F280E94CA
:10452000BD2880E090E00E94BA1D80E090E00C94ED
:10453000D01D80913A0190913B010E941B2A0C945E
:104540008B220E947F280C949922E92FE295EF702C
:104550004E2F50E0FA013297EE30F105B0F4E658F4
:10456000FF4F0C940733803F91F018F4883E68F4B5
:104570000EC0843F51F40BC0883E48F0813F29F4BF
:1045800006C093FB882780F9089580E0089581E0B4
:1045900008950E9430280E94A5220895CF93DF93AA
:1045A00000D000D01F92CDB7DEB70F900F900F90C4
:1045B0000F900F90DF91CF910895CF93DF9300D0AC
:1045C00000D000D0CDB7DEB726960FB6F894DEBF88
:1045D0000FBECDBFDF91CF9108951F93CF93DF938F
:1045E000C0917D0216E080917E02C81799F0D0E05C
:1045F0001C9FF0011D9FF00D1124E158FD4F4081DB
:10460000518162817381848195810E94DD2221968E
:10461000C770E9CFDF91CF911F9108954091AF020C
:104620005091B0026091B1027091B2028091B302D8
:104630009091B4020C94DD220F931F93CF93DF93DC
:104640008091B40282958F7009F05DC08091B102B3
:10465000882309F458C080917D0210917E026091F8
:10466000AF027091B002C091B202D091B30291E05A
:104670006F3F09F090E0292F06E0811709F443C04D
:10468000209721F07F3F21F030E003C031E001C0EE
:10469000322F90E030FD34C0089FF001099FF00DEB
:1046A0001124DF01A158BD4F11963C91119737138A
:1046B00027C03C91361324C012963C9112973111B9
:1046C0001FC013964D915C9114974C1B5D0B483C99
:1046D0005105B0F48091B4028F7080618093B40270
:1046E000EC57FD4F80818F70806180838FEA92E06C
:1046F0000E945B22DF91CF911F910F910C94ED22CC
:1047000001968770BACFDF91CF911F910F910895D5
:104710009F92AF92BF92CF92DF92EF92FF920F9350
:104720001F93CF93DF93CDB7DEB761970FB6F894A1
:10473000DEBF0FBECDBF8C0185E0F801DE011D9606
:1047400001900D928A95E1F7F80140815181E28054
:104750009091AF026091B0022091B2023091B30209
:104760002115310531F06F3F31F481E09F3F19F49D
:1047700003C081E001C080E0F82FF1709F2E80FD22
:1047800046C1F801A380B4808FEAC82E82E0D82EFB
:10479000F090B102F501E21BF30BFF2009F4DFC03A
:1047A0008091B402E83CF10508F09BC0282F207FDF
:1047B00009F052C0561313C0491311C0FE2CE1106A
:1047C0000EC08F7080618093B4020E940E23C601D8
:1047D0000E945B228091B402F801858358C1AB2806
:1047E00031F05F3F31F481E04F3F19F403C081E0C5
:1047F00001C080E080FD03C081E08E2502C080E022
:1048000090E0F82FF170FF2E80FF1CC080917D0298
:1048100020917E0236E0821709F417C190E0389F9C
:10482000F001399FF00D1124E158FD4F61815613BD
:1048300006C06081461303C06281E61203C0019680
:104840008770E9CFFE2CEE2009F421C18091B402DB
:1048500081608093B4025AC0561306C0491304C045
:10486000E11002C0F8019FC04D875E878D859E854F
:104870000E94C922882379F1EE2069F12091B402C7
:10488000822F82958F7090E0029774F08091AF0232
:104890009091B00298878F831986BB86AA862C8751
:1048A000CE0107960E945B2286E0F801AFEAB2E0F3
:1048B00001900D928A95E1F70E941C230E940E231D
:1048C0000DC0561729F14D875E878D859E850E9404
:1048D000C92281112CC0C8010E945B22FF24F394DD
:1048E000D6C0282F207F69F77A2DB98AA88A6E2D25
:1048F00089890E94CE228FEA92E00E945B2286E0A4
:10490000F60111928A95E9F70E940E23F12CBFC09F
:104910004913D9CFE110D7CFF8018583C8010E9490
:104920005B2286E0F60111928A95E9F7B0C0EE208D
:1049300091F22091B402822F82958F7090E00297BD
:104940000CF4B2CF8091AF029091B0029A83898328
:104950001B82BD82AC822E83CE010196A3CFE83CA0
:10496000F10508F047C0FE2CEE2009F4B4CF561331
:1049700030C049132EC02091B40220FD21C0822FE7
:1049800082958F70482F50E041155105C9F0F8010C
:1049900025834F30510541F08F5F982F9295907F7E
:1049A000822F8F70892B8583C8010E945B2286E04D
:1049B000F801AFEAB2E001900D928A95E1F742C0AA
:1049C00086E0F801AFEAB2E001900D928A95E1F736
:1049D0005EC04D875E878D859E850E94C9228111AC
:1049E00063CF8091B40281608093B402C8010E94B9
:1049F0005B224DC07A2DB98AA88A6E2D89890E94C2
:104A0000CE2286E0F60111928A95E9F71BC0EE20CE
:104A100009F461CF4D875E878D859E850E94C922EE
:104A2000F82E882309F457CF86E0F801AFEAB2E008
:104A300001900D928A95E1F78FEA92E00E94061F9D
:104A40000E941C230E940E2322C04D875E878D8505
:104A50009E850E943028292F22952F70223028F41D
:104A60009F7039F0811105C00BC0243028F49F706D
:104A700049F4805E883020F0C8010E945B229F2CA0
:104A8000F92C05C0F8019581907F99F7F9CF8F2D0A
:104A900061960FB6F894DEBF0FBECDBFDF91CF9108
:104AA0001F910F91FF90EF90DF90CF90BF90AF904C
:104AB0009F9008951F93CF93DF93CDB7DEB72C97C8
:104AC0000FB6F894DEBF0FBECDBF4F8358876987FE
:104AD0007A878B879C87CE0107960E94882388233C
:104AE000D1F09F8188852A853B85232B31F08F3F2C
:104AF00031F481E09F3F19F403C081E001C080E000
:104B000080FD47C04F81588569857A858B859C8556
:104B10000E94DD223EC086E0FE013796DE0111963E
:104B200001900D928A95E1F7FF81E8856A857B8582
:104B30006115710531F0EF3F31F481E0FF3F19F469
:104B400003C081E001C080E080FD23C020917E028F
:104B500030E0C90101968770992740917D0250E0AD
:104B600084179507F1F1F983EA837D836C8396E0DE
:104B7000929FD001939FB00D1124A158BD4FFE010B
:104B8000319601900D929A95E1F780937E020E94F2
:104B9000ED2216E080917D0290917E02891771F1DD
:104BA000189FC001112481589D4F0E94882388239B
:104BB00029F1E0917D021E9FF0011124E158FD4F83
:104BC0004081518162817381848195810E94DD22BF
:104BD00080917D0290E001968770992780937D02F5
:104BE000D9CF0E94A12210927E0210927D02EFEA9C
:104BF000F2E086E0DF011D928A95E9F72C960FB668
:104C0000F894DEBF0FBECDBFDF91CF911F91089505
:104C1000EF92FF920F931F93CF93DF938C01892B19
:104C200009F46CC0F12CEE24E394E8012196F8011C
:104C30008491843740F4843008F051C0813081F091
:104C4000823019F15BC0853709F444C0A8F19CE7B4
:104C5000980F903708F052C08F770E94AE1F41C066
:104C60000E5F1F4FFE01849190E2980F983050F430
:104C70008770FE2D01C0FF0F8A95EAF78F2F0E94E3
:104C8000922814C00E940C1F2DC00E5F1F4FFE0102
:104C9000849190E2980F983060F48770FE2D01C0E7
:104CA000FF0F8A95EAF78F2F0E9498280E94BD284F
:104CB00019C00E94AE1F16C00E5F1F4FFE01C491A7
:104CC000CC2381F08FE99FE00197F1F700C000004D
:104CD000C150F6CF0E5F1F4FFE01F49003C00E943B
:104CE0000C1F8E018F2D882309F49FCFEFE9FFE081
:104CF0003197F1F700C000008150F5CFDF91CF91DF
:104D00001F910F91FF90EF900895089508950C94CE
:104D100086260C9487260E9489266093E102709370
:104D2000E2028093E3029093E4020C948B220C94B1
:104D30008B260F931F930091E1021091E2022091C4
:104D4000E3023091E402602B712B822B932B1F9195
:104D50000F910C948B260F931F930091E1021091F9
:104D6000E2022091E3023091E40260237123822366
:104D700093231F910F910C948B260F931F930091F7
:104D8000E1021091E2022091E3023091E4026027F7
:104D90007127822793271F910F910C948B260C94D7
:104DA00086260E94CF266093DD027093DE028093F8
:104DB000DF029093E0020C948B2260E070E0CB0164
:104DC0000C94D1260F931F9341E050E060E070E017
:104DD0008A019B0104C0000F111F221F331F8A95F7
:104DE000D2F7C901B8011F910F910C94D1260F93EE
:104DF0001F9341E050E060E070E004C0440F551F95
:104E0000661F771F8A95D2F78091DD029091DE02AE
:104E1000A091DF02B091E0028A019B01082B192BBF
:104E20002A2B3B2BC901B8011F910F910C94D1265D
:104E30000F931F9341E050E060E070E004C0440F26
:104E4000551F661F771F8A95D2F74095509560953C
:104E500070958091DD029091DE02A091DF02B09109
:104E6000E0028A019B01082319232A233B23C9015D
:104E7000B8011F910F910C94D1260F931F9341E01D
:104E800050E060E070E004C0440F551F661F771FBC
:104E90008A95D2F78091DD029091DE02A091DF0227
:104EA000B091E0028A019B01082719272A273B2796
:104EB000C901B8011F910F910C94D1260F931F9334
:104EC0000091DD021091DE022091DF023091E002BC
:104ED000602B712B822B932B1F910F910C94D12659
:104EE0000F931F930091DD021091DE022091DF02EB
:104EF0003091E00260237123822393231F910F914D
:104F00000C94D1260F931F930091DD021091DE02C5
:104F10002091DF023091E0026027712782279327DA
:104F20001F910F910C94D1260895292F220F920FD3
:104F3000990F890FE82FE695E695E695877051E081
:104F400001C0550F8A95EAF785E0E89FF00111242A
:104F5000EB54FD4F20E030E070E04081CB01022EA9
:104F600002C0969587950A94E2F78170819584270F
:104F70008523842781932F5F3F4F2530310569F7C3
:104F80000895292F220F920F990F890F682F669588
:104F900066956695982F977085E0689FB0011124FB
:104FA00040E050E080E0FB01E40FF51FEB54FD4FC3
:104FB000208130E0092E02C0369527950A94E2F749
:104FC00021703327042E01C0220F0A94EAF7822BA6
:104FD0004F5F5F4F4530510531F70895BF92CF9233
:104FE000DF92EF92FF920F931F93CF93DF938C0189
:104FF000C090DD02D090DE02E090DF02F090E0028F
:105000008091E1029091E202A091E302B091E4026A
:10501000C82AD92AEA2AFB2ACFE1D0E0D701C60163
:105020000C2E04C0B695A795979587950A94D2F74C
:1050300080FD04C0219790F7B12C07C0BC2EB801A9
:105040008C2F0E94B9070197A9F38B2DDF91CF9187
:105050001F910F91FF90EF90DF90CF90BF90089538
:10506000CF93DF93EC010E94EE27BE010E94B907A7
:10507000DF91CF9108951F93CF93DF93EB01909130
:105080007C02992321F0CB010E94302813C0882391
:1050900049F0CB010E94EE27182F682FCE010E9405
:1050A000952704C0CB010E94C127182FBE01812F74
:1050B0000E94B907DF91CF911F9108958091E50279
:1050C00085958595859508958091E5028770089569
:1050D0009091E502977081E009F480E00895809155
:1050E000F10208959091F102892B8093F1020895C5
:1050F00080959091F10289238093F1020895109296
:10510000F10208959091F002892B8093F0020895A6
:1051100080959091F00289238093F0020895109277
:10512000F00208959091EF02892B8093EF02089589
:1051300080959091EF0289238093EF020895109259
:10514000EF0208958091E602089508950C94A52831
:105150000C94A6289091E602981721F08093E6021D
:105160000C94A82808958091E602882329F01092D3
:10517000E60280E00C94A8280895E0913A01F091AD
:105180003B018091F1028083E0913A01F0913B0173
:1051900090818091F002892B8083E0913A01F09117
:1051A0003B0190818091EF02892B80838091E60200
:1051B000882381F0E0913A01F0913B019081892BA5
:1051C000808380913A0190913B010E94D529811101
:1051D0000E94B32880913A0190913B010C94711D7B
:1051E0000C94A52898E0899F90011124262B2093E8
:1051F000E5020E94F7268091E502859585958595C3
:105200000C94F0281092E50280E00C94F028209194
:10521000E502809582238093E502982F977079F4B8
:1052200030E0482F082E000C550B2417350739F0B5
:105230008595859585950E9418270C9402290895D7
:105240009093FB018093FA01089580E090E00E9422
:10525000B53321E08C3E9E4F09F020E0822F089567
:1052600082E090E00C94A73383E090E00C94A733A5
:10527000CF9384E090E00E94A733C82F81E290E0B2
:105280000E94A7332C2F30E0A901582BCA01CF91DF
:105290000895CF93C92F682F84E090E00E94BB331C
:1052A0006C2F81E290E0CF910C94BB3386E090E0CC
:1052B0000C94A733682F86E090E00C94BB33AB01CD
:1052C000BC018FE090E00C94CD33AB01BC0183E1D5
:1052D00090E00C94CD3360E070E0CB010C94652934
:1052E0006CEE7EEF80E090E00E94D93360E082E0D7
:1052F00090E00E94BB3360E083E090E00E94BB330B
:105300001092E1021092E2021092E3021092E40283
:1053100060E084E090E00E94BB3360E081E290E0D6
:105320000E94BB3360E085E090E00E94BB3360E008
:1053300086E090E00E94BB336FEF87E090E00E9430
:10534000BB3340E050E0BA0188E090E00E94CD33EA
:1053500060E08DE090E00E94BB3340E050E0BA0195
:1053600088E190E00E94CD3360E087E190E00E9408
:10537000BB3340E050E0BA018CE190E00E94CD33B5
:1053800060E080E290E00E94BB3340E050E0BA0170
:1053900088E190E00E94CD330C9490060C94702923
:1053A000682F8EE090E00C94BB33FC01329697E0BE
:1053B00080E0915029F021912223D9F38F5FF9CF1A
:1053C0000895662349F0FC013296089621916217F0
:1053D00029F0E817F907D1F780E0089581E00895F2
:1053E0009C01FC0132969FEF80E04191461789F0C5
:1053F0009F3F19F4411101C0982F8F5F8630A9F7A4
:105400009F3F39F0F901E90FF11D97FDFA9562838D
:10541000089508959C012A5F3F4FFC014281461385
:1054200001C01282019682179307B9F708950C9470
:10543000F0290C940A2A029626E0FC0111922A9582
:10544000E9F7089508950C94222A0C94222ACF9308
:105450000E94252A0E94CA0A0E94232AC0E08C2F9B
:105460000E94A209811104C0CF5FCA30C1F701C0F8
:1054700081E0CF9108950C94222A0C943B2A0E943B
:105480003D2A80914B03843061F11092F30220E4B5
:1054900088E190E00FB6F894A895809360000FBE65
:1054A0002093600080E00E94CE1780E00E94910768
:1054B0000E943D2A83B7817F846083BF83B7816068
:1054C00083BF7894889583B78E7F83BF0FB6F89497
:1054D000A8958091600088618093600010926000C0
:1054E0000FBE08950C94222A0E94A1220E945316F6
:1054F0000E94651D0E9491070C94722A1F920F92C0
:105500000FB60F9211248F939F93AF93BF93809107
:10551000F302811113C08091410390914203A09145
:105520004303B09144034196A11DB11D80934103F3
:1055300090934203A0934303B0934403BF91AF9170
:105540009F918F910F900FBE0F901F90189582E042
:1055500084BD93E095BD9AEF97BD80936E0008954A
:105560002FB7F8948091410390914203A091430397
:10557000B09144032FBF08959C014FB7F8948091D8
:10558000410390914203A0914303B09144034FBF64
:10559000821B930B089578941F920F920FB60F926F
:1055A00011248F939F93AF93BF9380914103909168
:1055B0004203A0914303B09144030196A11DB11D84
:1055C0008093410390934203A0934303B093440319
:1055D000BF91AF919F918F910F900FBE0F901F9031
:1055E000189581E08093E00080E28093D8001092CB
:1055F000C9008FE19EE40197F1F700C0000087E049
:1056000090EBDC018093540390935503A0935603D1
:10561000B09357039CE088E10FB6F894A895809367
:1056200060000FBE90936000FFCF0E94252981117A
:1056300002C00E94CE290E9430298093F2020E946B
:10564000382990934603809345030E943429682F9C
:1056500070E080E090E00E9497266091DD027091FA
:10566000DE028091DF029091E0020C94CF268091BF
:10567000FF02089508959FB7F8941092F6029FBF15
:1056800090914B03943009F057C09091E9009F70BE
:105690003091EC00232F217030FD20E8922B23E085
:1056A0002093E9002091EB0020FF43C02091EE0001
:1056B00027FF3FC02091F402222321F02091E8002F
:1056C00025FF37C01092F40226E03091E80035FD46
:1056D00015C030914B03343061F53091EB0035FD4E
:1056E00028C0215021F481E08093F40222C0EFE928
:1056F000FFE03197F1F700C00000E7CF8093F100A1
:105700008091E80085FD0AC08091E80080FFFCCF11
:105710008091E8008E778093E80006C08FB7F894F8
:1057200021E02093F6028FBF9F709093E90080E004
:1057300008959F709093E9008FEF0895CF93DF93C2
:1057400000D01F92CDB7DEB790914B03943019F57E
:1057500089837B836A8382E08093E9008FEF909155
:10576000E800815095FD06C095ED9A95F1F700008F
:105770008111F5CF8091E80085FF0DC040E050E039
:1057800063E070E0CE0101960E94F62D8091E80062
:105790008E778093E8000F900F900F90DF91CF915C
:1057A0000895BC0184E00C949E2BBC0183E00C9412
:1057B0009E2BCF93DF9321E02093E9002FEF3091D0
:1057C000E800215035FD06C035ED3A95F1F70000AF
:1057D0002111F5CF2091E80025FF14C0EC0140E035
:1057E00050E068E070E00E94F62D8091E8008E772E
:1057F0008093E80088E0FE01A7EFB2E001900D92EF
:105800008A95E1F7DF91CF91089580EF99E00E94AA
:10581000EE0580914A03811109C00E94872F0E94E2
:10582000E42F8091E20084608093E20008958CEE82
:1058300099E00E94EE0510924A03089588EE99E0DF
:105840000C94EE0584EE99E00C94EE0580EE99E060
:105850000E94EE050C94742A2091F5022F5F822F8E
:1058600062E30E94A332992319F02093F502089570
:105870001092F5028091F602882371F180914B031A
:10588000843041F58091E9008F702091EC00922FD7
:10589000917020FD90E8892B93E09093E90090911E
:1058A000EB0090FF14C09091EE0097FF10C0909114
:1058B000E80095FF03C01092F100F9CF9091E80045
:1058C00090FF05C09091E8009E779093E8008F705C
:1058D0008093E9001092F602089542E061EC81E0C5
:1058E0000E94002F42E261EC82E00E94002F42E21F
:1058F00061EC83E00C94002F80914D03833009F418
:1059000060C030F4813071F0823009F499C008959C
:105910008A3009F485C08B3009F46BC0893009F0F6
:10592000A7C020C080914C03813A09F0A1C08091AA
:10593000E800877F8093E8008091500390915103A5
:10594000892B21F468E087EF92E003C060E080E0FB
:1059500090E070E00E94412E8091E8008B77809368
:10596000E800089580914C03813209F081C0809154
:10597000500390915103029708F07AC08091E8009B
:10598000877F8093E8008091E80082FD05C08091C8
:105990004B038111F8CF6CC02091F3008091F2008D
:1059A00090E0922B029729F48091F1008B7F813057
:1059B00021F48091F1008093FF028091E8008B77C1
:1059C00053C080914C03813A09F052C0809150033A
:1059D00090915103892B09F04BC08091E800877F9B
:1059E0008093E8008091E80080FFFCCF8091460121
:1059F00036C080914C038132D9F58091500390914B
:105A00005103892BA9F58091E800877F8093E800F6
:105A10000E94352F80914E03809346010C94A12261
:105A200080914C03813221F58091E800877F80933B
:105A3000E8000E94352F80914F0380930003089562
:105A400080914C03813AA1F48091E800877F809394
:105A5000E8008091E80080FFFCCF809100038093F4
:105A6000F1008091E8008E778093E8000C94352F48
:105A7000089584B7877F84BF0FB6F894A895809166
:105A80006000886180936000109260000FBE90E01B
:105A900080E80FB6F89480936100909361000FBE88
:105AA0000E94FC1D0E94872F0E94E42F8091E2003B
:105AB00084608093E2008BE39BE20E94202978942B
:105AC0000E9478320E94021E8CE391E00E94601DC9
:105AD0008FEC99E00E94EE0580914B03853089F4AC
